:1000000027C04BC04AC049C048C018C246C045C0FE
:1000100044C043C06CC041C040C03FC03EC00000AF
:10002000000037000000000038000000000036002B
:10003000020202020202020202020102040810206D
:10004000200410080102000000000000000052001F
:1000500011241FBECFE5D2E0DEBFCDBF10E0A0E689
:10006000B0E0EAEBF9E002C005900D92A036B107CE
:10007000D9F710E0A0E6B0E001C01D92A539B107A4
:10008000E1F710E0C0E5D0E003C02297FE018FD475
:10009000CE34D107D1F75FD38EC4B2CF089508957F
:1000A000089508950F931F9380E690E062E771E052
:1000B00043E151E02FE031E04CD106E610E0C80109
:1000C0006EE470E045E051E02FE430E042D18CE690
:1000D00090E060E570E04BEF50E021E530E039D191
:1000E00082E790E0B80157D11F910F9108951F92B8
:1000F0000F920FB60F921124EF92FF920F931F935E
:100100002F933F934F935F936F937F938F939F931F
:10011000AF93BF93EF93FF9380E0E9D2282F8091B4
:1001200083002817A1F48091840090918500A0910C
:100130008600B09187000196A11DB11D80938400B7
:1001400090938500A0938600B09387003FC0213034
:1001500049F480917F0090918000019690938000F7
:1001600080937F002093830080E090E0AAE7B4E4CE
:100170008093880090938900A0938A00B0938B00AD
:10018000E0908800F090890000918A0010918B0027
:100190006091840070918500809186009091870025
:1001A0004ED39B01AC01C801B701E1D26093880036
:1001B0007093890080938A0090938B001092840042
:1001C000109285001092860010928700FF91EF91A7
:1001D000BF91AF919F918F917F916F915F914F915F
:1001E0003F912F911F910F91FF90EF900F900FBEB5
:1001F0000F901F90189584E07AD2892B29F482E71A
:1002000090E060E670E00AD1089584E070D2019732
:1002100029F482E790E06CE670E000D1089582E076
:1002200060E031D20895EF92FF920F931F935AD15D
:100230007B018C0184E05BD20197C9F081E057D249
:10024000892BA9F080917B0090917C00A0917D008A
:10025000B0917E00E81AF90A0A0B1B0B81E2E8163E
:100260008FEBF80682E0080780E0180730F082E79D
:1002700090E066E670E0D2D030C020917F003091EF
:10028000800080918100909182008217930701F194
:1002900080917F00909180009093820080938100F4
:1002A00060917F007091800084E0769567958A95D3
:1002B000E1F780E090E0C3D220E030E048EC52E487
:1002C0004CD388232CF082E790E066E670E0A6D05D
:1002D00064E670E080E090E02ED11F910F91FF90D6
:1002E000EF90089568E873E180E090E024D182E027
:1002F00061E0C9D11092800010927F0010928200BC
:1003000010928100EFD060937B0070937C0080930B
:100310007D0090937E00089582E790E065D0089577
:1003200081E062E071D184E062E06ED182E061E060
:100330006BD180E060E068D180E061E0A4D180E032
:10034000D6D1809383008FEA89BD89B7806189BF48
:100350000895FC0171836083538342833583248332
:100360000895FC010190F081E02D309709F0099586
:100370000895DC011296ED91FC911397309709F0E6
:1003800009950895DC011496ED91FC91159730972D
:1003900009F009950895FC0181E0808374836383EB
:1003A0007283618315821682178210860895EF92F8
:1003B000FF920F931F937C018B01FC01818192813D
:1003C000E1DFF7011483038312830183C801C9DFCE
:1003D00089D0F7016583768387839087C7011F9152
:1003E0000F91FF90EF900895CF93DF93EC018881F8
:1003F00029813A81882321F0C901B3DF18820AC01C
:100400006B817C812617370711F0CE01D0DF8981FF
:100410009A81AFDFCE01DF91CF9108950F931F93A3
:100420008C01FC01748363835DD0F801658376835E
:1004300087839087C8011F910F9108951F920F9293
:100440000FB60F9211242F933F934F935F936F93A7
:100450007F938F939F93AF93BF93209190003091A0
:100460009100409192005091930070919400DA01B4
:10047000C9010296A11DB11D672F6A5F6D3730F06B
:100480006D57DA01C9010396A11DB11D6093940057
:100490008093900090939100A0939200B09393006A
:1004A00080918C0090918D00A0918E00B0918F0072
:1004B0000196A11DB11D80938C0090938D00A09397
:1004C0008E00B0938F00BF91AF919F918F917F91DC
:1004D0006F915F914F913F912F910F900FBE0F90B1
:1004E0001F9018958FB7F89420919000309191004B
:1004F00040919200509193008FBFB901CA010895B5
:1005000078948AB582608ABD8AB581608ABD83B7D6
:10051000826083BF83B7816083BF89B7826089BFF0
:1005200080B7826080BF80B7816080BF329A319A85
:10053000309A379A0895EF92FF920F931F93CF93BB
:10054000DF937B018C013FB7F89480918C009091F0
:100550008D00A0918E00B0918F0022B708B601FEE9
:1005600005C02F3F19F00196A11DB11D3FBFBA2F45
:10057000A92F982F8827820F911DA11DB11D53E02F
:10058000880F991FAA1FBB1F5A95D1F7EC0130C0E5
:10059000EDD03FB7F89480918C0090918D00A091A0
:1005A0008E00B0918F0022B708B601FE05C02F3F24
:1005B00019F00196A11DB11D3FBFBA2FA92F982F89
:1005C0008827820F911DA11DB11D33E0880F991F4F
:1005D000AA1FBB1F3A95D1F78C1B9D0B885E9340D9
:1005E000B8F20894E108F10801091109C851DC4F7B
:1005F000E114F1040105110559F6DF91CF911F9126
:100600000F91FF90EF900895CF93DF93482F50E024
:10061000CA01865C9F4FFC013491405D5F4FFA0137
:100620008491882369F190E0880F991FFC01E25EB4
:10063000FF4FA591B491FC01EC5DFF4FC591D491A2
:10064000662351F42FB7F8948C91932F90958923BA
:100650008C93888189230BC0623061F42FB7F894A2
:100660008C91932F909589238C938881832B8883F9
:100670002FBF06C09FB7F8948C91832B8C939FBF9C
:10068000DF91CF910895482F50E0CA018C5B9F4FB6
:10069000FC012491CA01865C9F4FFC019491405D4E
:1006A0005F4FFA013491332309F1222359F02130AD
:1006B00019F0223039F403C08AB58F7702C08AB5A9
:1006C0008F7D8ABDE32FF0E0EE0FFF1FEC5DFF4F43
:1006D000A591B4912FB7F894662321F48C9190954D
:1006E000892302C08C91892B8C932FBF0895682F8A
:1006F00070E0CB018C5B9F4FFC012491CB01865CA9
:100700009F4FFC014491605D7F4FFB0194919923C1
:1007100019F420E030E01DC0222359F0213019F0F7
:10072000223039F403C08AB58F7702C08AB58F7D35
:100730008ABD892F90E0880F991F865D9F4FFC012D
:10074000A591B4918C9120E030E0842311F021E058
:1007500030E0C9010895CF93DF93D2DEE1DDC0E040
:10076000D0E0DADD2097E9F34BDCFBCF08950CD025
:10077000BAC0B2D040F0A9D030F021F45F3F19F0F8
:100780009BC05111E4C09EC0BFD098F39923C9F318
:100790005523B1F3951B550BBB27AA276217730787
:1007A000840738F09F5F5F4F220F331F441FAA1F3B
:1007B000A9F333D00E2E3AF0E0E830D091505040FB
:1007C000E695001CCAF729D0FE2F27D0660F771FA9
:1007D000881FBB1F261737074807AB07B0E809F08B
:1007E000BB0B802DBF01FF2793585F4F2AF09E3F20
:1007F000510568F061C0ABC05F3FECF3983EDCF39D
:10080000869577956795B795F7959F5FC9F7880F98
:10081000911D9695879597F90895E1E0660F771FEA
:10082000881FBB1F621773078407BA0720F0621B7B
:10083000730B840BBA0BEE1F88F7E0950895E894CC
:1008400009C097FB3EF490958095709561957F4F18
:100850008F4F9F4F9923A9F0F92F96E9BB279395C6
:10086000F695879577956795B795F111F8CFFAF4D6
:10087000BB0F11F460FF1BC06F5F7F4F8F4F9F4F07
:1008800016C0882311F096E911C0772321F09EE865
:10089000872F762F05C0662371F096E8862F70E0CB
:1008A00060E02AF09A95660F771F881FDAF7880FA5
:1008B0009695879597F9089597F99F6780E870E076
:1008C00060E008959FEF80EC089500240A941616C6
:1008D000170618060906089500240A94121613062E
:1008E000140605060895092E0394000C11F48823BC
:1008F00052F0BB0F40F4BF2B11F460FF04C06F5FD8
:100900007F4F8F4F9F4F089557FD9058440F551FAD
:1009100059F05F3F71F04795880F97FB991F61F081
:100920009F3F79F087950895121613061406551FF8
:10093000F2CF4695F1DF08C0161617061806991F64
:10094000F1CF86957105610508940895E894BB2759
:1009500066277727CB0197F9089503D008F48FEF26
:100960000895990F0008550FAA0BE0E8FEEF161640
:100970001706E807F907C0F012161306E407F50793
:1009800098F0621B730B840B950B39F40A2661F007
:10099000232B242B252B21F408950A2609F4A140AA
:1009A000A6958FEF811D811D0895EE0FFF1F059005
:0A09B000F491E02D0994F894FFCFB4
:00000001FF
